{
  "contractName": "Escrow",
  "abi": [
    {
      "constant": true,
      "inputs": [
        {
          "name": "",
          "type": "bytes32"
        }
      ],
      "name": "allEscrows",
      "outputs": [
        {
          "name": "exists",
          "type": "bool"
        },
        {
          "name": "buyer",
          "type": "address"
        },
        {
          "name": "seller",
          "type": "address"
        },
        {
          "name": "escrowParty",
          "type": "address"
        },
        {
          "name": "amount",
          "type": "uint256"
        },
        {
          "name": "buyerHappy",
          "type": "bool"
        },
        {
          "name": "sellerRequest",
          "type": "bool"
        },
        {
          "name": "escrowResolved",
          "type": "bool"
        }
      ],
      "payable": false,
      "stateMutability": "view",
      "type": "function"
    },
    {
      "constant": true,
      "inputs": [],
      "name": "owner",
      "outputs": [
        {
          "name": "",
          "type": "address"
        }
      ],
      "payable": false,
      "stateMutability": "view",
      "type": "function"
    },
    {
      "inputs": [],
      "payable": false,
      "stateMutability": "nonpayable",
      "type": "constructor"
    },
    {
      "anonymous": false,
      "inputs": [
        {
          "indexed": false,
          "name": "_exchangeHash",
          "type": "bytes32"
        }
      ],
      "name": "EscrowCreated",
      "type": "event"
    },
    {
      "anonymous": false,
      "inputs": [
        {
          "indexed": false,
          "name": "amt",
          "type": "uint256"
        }
      ],
      "name": "PaymentSuccess",
      "type": "event"
    },
    {
      "constant": false,
      "inputs": [],
      "name": "depositBean",
      "outputs": [],
      "payable": true,
      "stateMutability": "payable",
      "type": "function"
    },
    {
      "constant": true,
      "inputs": [],
      "name": "checkBean",
      "outputs": [
        {
          "name": "",
          "type": "uint256"
        }
      ],
      "payable": false,
      "stateMutability": "view",
      "type": "function"
    },
    {
      "constant": false,
      "inputs": [
        {
          "name": "sellerAddress",
          "type": "address"
        },
        {
          "name": "amount",
          "type": "uint256"
        }
      ],
      "name": "createEscrow",
      "outputs": [
        {
          "name": "",
          "type": "bool"
        }
      ],
      "payable": true,
      "stateMutability": "payable",
      "type": "function"
    },
    {
      "constant": false,
      "inputs": [
        {
          "name": "exchangeHash",
          "type": "bytes32"
        }
      ],
      "name": "sellerRequest",
      "outputs": [],
      "payable": false,
      "stateMutability": "nonpayable",
      "type": "function"
    },
    {
      "constant": false,
      "inputs": [
        {
          "name": "exchangeHash",
          "type": "bytes32"
        }
      ],
      "name": "buyerSatisfied",
      "outputs": [],
      "payable": false,
      "stateMutability": "nonpayable",
      "type": "function"
    },
    {
      "constant": false,
      "inputs": [
        {
          "name": "exchangeHash",
          "type": "bytes32"
        }
      ],
      "name": "ownerResolveFavorSeller",
      "outputs": [],
      "payable": false,
      "stateMutability": "nonpayable",
      "type": "function"
    },
    {
      "constant": false,
      "inputs": [
        {
          "name": "exchangeHash",
          "type": "bytes32"
        }
      ],
      "name": "ownerResolveFavorBuyer",
      "outputs": [],
      "payable": false,
      "stateMutability": "nonpayable",
      "type": "function"
    }
  ],
  "bytecode": "0x608060405234801561001057600080fd5b50336000806101000a81548173ffffffffffffffffffffffffffffffffffffffff021916908373ffffffffffffffffffffffffffffffffffffffff1602179055506110e4806100606000396000f300608060405260043610610099576000357c0100000000000000000000000000000000000000000000000000000000900463ffffffff1680630e880a7d1461009e57806312789cab146100cf57806317005c35146100d95780632c945303146101e35780633768dd8c1461020e5780634614874e1461023f5780638da5cb5b14610297578063aafcd7df146102ee578063d267b90b1461031f575b600080fd5b3480156100aa57600080fd5b506100cd6004803603810190808035600019169060200190929190505050610350565b005b6100d7610437565b005b3480156100e557600080fd5b506101086004803603810190808035600019169060200190929190505050610439565b60405180891515151581526020018873ffffffffffffffffffffffffffffffffffffffff1673ffffffffffffffffffffffffffffffffffffffff1681526020018773ffffffffffffffffffffffffffffffffffffffff1673ffffffffffffffffffffffffffffffffffffffff1681526020018673ffffffffffffffffffffffffffffffffffffffff1673ffffffffffffffffffffffffffffffffffffffff1681526020018581526020018415151515815260200183151515158152602001821515151581526020019850505050505050505060405180910390f35b3480156101ef57600080fd5b506101f8610515565b6040518082815260200191505060405180910390f35b34801561021a57600080fd5b5061023d6004803603810190808035600019169060200190929190505050610534565b005b61027d600480360381019080803573ffffffffffffffffffffffffffffffffffffffff16906020019092919080359060200190929190505050610618565b604051808215151515815260200191505060405180910390f35b3480156102a357600080fd5b506102ac6109d3565b604051808273ffffffffffffffffffffffffffffffffffffffff1673ffffffffffffffffffffffffffffffffffffffff16815260200191505060405180910390f35b3480156102fa57600080fd5b5061031d60048036038101908080356000191690602001909291905050506109f8565b005b34801561032b57600080fd5b5061034e6004803603810190808035600019169060200190929190505050610adc565b005b6000813373ffffffffffffffffffffffffffffffffffffffff1660016000836000191660001916815260200190815260200160002060000160019054906101000a900473ffffffffffffffffffffffffffffffffffffffff1673ffffffffffffffffffffffffffffffffffffffff161415156103cb57600080fd5b6001600084600019166000191681526020019081526020016000209150600115158260040160019054906101000a900460ff16151514151561040c57600080fd5b60018260040160006101000a81548160ff02191690831515021790555061043283610b96565b505050565b565b60016020528060005260406000206000915090508060000160009054906101000a900460ff16908060000160019054906101000a900473ffffffffffffffffffffffffffffffffffffffff16908060010160009054906101000a900473ffffffffffffffffffffffffffffffffffffffff16908060020160009054906101000a900473ffffffffffffffffffffffffffffffffffffffff16908060030154908060040160009054906101000a900460ff16908060040160019054906101000a900460ff16908060040160029054906101000a900460ff16905088565b60003073ffffffffffffffffffffffffffffffffffffffff1631905090565b6000816000809054906101000a900473ffffffffffffffffffffffffffffffffffffffff1673ffffffffffffffffffffffffffffffffffffffff1660016000836000191660001916815260200190815260200160002060020160009054906101000a900473ffffffffffffffffffffffffffffffffffffffff1673ffffffffffffffffffffffffffffffffffffffff161415156105d057600080fd5b600160008460001916600019168152602001908152602001600020915060018260040160026101000a81548160ff02191690831515021790555061061383610ddf565b505050565b600080610623611028565b60003411151561063257600080fd5b338585604051808473ffffffffffffffffffffffffffffffffffffffff1673ffffffffffffffffffffffffffffffffffffffff166c010000000000000000000000000281526014018373ffffffffffffffffffffffffffffffffffffffff1673ffffffffffffffffffffffffffffffffffffffff166c0100000000000000000000000002815260140182815260200193505050506040518091039020915060016000836000191660001916815260200190815260200160002060000160009054906101000a900460ff1615151561070857600080fd5b33816020019073ffffffffffffffffffffffffffffffffffffffff16908173ffffffffffffffffffffffffffffffffffffffff168152505084816040019073ffffffffffffffffffffffffffffffffffffffff16908173ffffffffffffffffffffffffffffffffffffffff16815250506000809054906101000a900473ffffffffffffffffffffffffffffffffffffffff16816060019073ffffffffffffffffffffffffffffffffffffffff16908173ffffffffffffffffffffffffffffffffffffffff16815250508381608001818152505060008160a001901515908115158152505060008160c001901515908115158152505060008160e00190151590811515815250508060016000846000191660001916815260200190815260200160002060008201518160000160006101000a81548160ff02191690831515021790555060208201518160000160016101000a81548173ffffffffffffffffffffffffffffffffffffffff021916908373ffffffffffffffffffffffffffffffffffffffff16021790555060408201518160010160006101000a81548173ffffffffffffffffffffffffffffffffffffffff021916908373ffffffffffffffffffffffffffffffffffffffff16021790555060608201518160020160006101000a81548173ffffffffffffffffffffffffffffffffffffffff021916908373ffffffffffffffffffffffffffffffffffffffff1602179055506080820151816003015560a08201518160040160006101000a81548160ff02191690831515021790555060c08201518160040160016101000a81548160ff02191690831515021790555060e08201518160040160026101000a81548160ff0219169083151502179055509050507f172bd7c7b396e5e48c349fc8e1c845f01eefba35dff18954119870b39fd05e798260405180826000191660001916815260200191505060405180910390a1505092915050565b6000809054906101000a900473ffffffffffffffffffffffffffffffffffffffff1681565b6000816000809054906101000a900473ffffffffffffffffffffffffffffffffffffffff1673ffffffffffffffffffffffffffffffffffffffff1660016000836000191660001916815260200190815260200160002060020160009054906101000a900473ffffffffffffffffffffffffffffffffffffffff1673ffffffffffffffffffffffffffffffffffffffff16141515610a9457600080fd5b600160008460001916600019168152602001908152602001600020915060018260040160026101000a81548160ff021916908315150217905550610ad783610b96565b505050565b6000813373ffffffffffffffffffffffffffffffffffffffff1660016000836000191660001916815260200190815260200160002060010160009054906101000a900473ffffffffffffffffffffffffffffffffffffffff1673ffffffffffffffffffffffffffffffffffffffff16141515610b5757600080fd5b600160008460001916600019168152602001908152602001600020915060018260040160016101000a81548160ff021916908315150217905550505050565b610b9e611028565b60008060016000856000191660001916815260200190815260200160002061010060405190810160405290816000820160009054906101000a900460ff161515151581526020016000820160019054906101000a900473ffffffffffffffffffffffffffffffffffffffff1673ffffffffffffffffffffffffffffffffffffffff1673ffffffffffffffffffffffffffffffffffffffff1681526020016001820160009054906101000a900473ffffffffffffffffffffffffffffffffffffffff1673ffffffffffffffffffffffffffffffffffffffff1673ffffffffffffffffffffffffffffffffffffffff1681526020016002820160009054906101000a900473ffffffffffffffffffffffffffffffffffffffff1673ffffffffffffffffffffffffffffffffffffffff1673ffffffffffffffffffffffffffffffffffffffff168152602001600382015481526020016004820160009054906101000a900460ff161515151581526020016004820160019054906101000a900460ff161515151581526020016004820160029054906101000a900460ff161515151581525050925082604001519150670de0b6b3a764000083608001510290508173ffffffffffffffffffffffffffffffffffffffff166108fc829081150290604051600060405180830381858888f19350505050158015610da1573d6000803e3d6000fd5b507f989ae04c8bf5e73a739aa6ff02eecbfa942564b0d688473b6cf3bf71f8c95ee8816040518082815260200191505060405180910390a150505050565b610de7611028565b60008060016000856000191660001916815260200190815260200160002061010060405190810160405290816000820160009054906101000a900460ff161515151581526020016000820160019054906101000a900473ffffffffffffffffffffffffffffffffffffffff1673ffffffffffffffffffffffffffffffffffffffff1673ffffffffffffffffffffffffffffffffffffffff1681526020016001820160009054906101000a900473ffffffffffffffffffffffffffffffffffffffff1673ffffffffffffffffffffffffffffffffffffffff1673ffffffffffffffffffffffffffffffffffffffff1681526020016002820160009054906101000a900473ffffffffffffffffffffffffffffffffffffffff1673ffffffffffffffffffffffffffffffffffffffff1673ffffffffffffffffffffffffffffffffffffffff168152602001600382015481526020016004820160009054906101000a900460ff161515151581526020016004820160019054906101000a900460ff161515151581526020016004820160029054906101000a900460ff161515151581525050925082602001519150670de0b6b3a764000083608001510290508173ffffffffffffffffffffffffffffffffffffffff166108fc829081150290604051600060405180830381858888f19350505050158015610fea573d6000803e3d6000fd5b507f989ae04c8bf5e73a739aa6ff02eecbfa942564b0d688473b6cf3bf71f8c95ee8816040518082815260200191505060405180910390a150505050565b61010060405190810160405280600015158152602001600073ffffffffffffffffffffffffffffffffffffffff168152602001600073ffffffffffffffffffffffffffffffffffffffff168152602001600073ffffffffffffffffffffffffffffffffffffffff1681526020016000815260200160001515815260200160001515815260200160001515815250905600a165627a7a72305820a21704e4cd1db4315546e734c6dd40c7cc1311ffc545f1039facc358fae2e8200029",
  "source": "pragma solidity ^0.4.24;\n\ncontract Escrow {\n\n    address public owner;\n    mapping(bytes32 => EscrowDetails) public allEscrows;\n\n    event EscrowCreated(bytes32 _exchangeHash);\n    event PaymentSuccess(uint amt);\n\n    struct EscrowDetails {\n        bool exists;\n        address buyer; //Stores address of buyer\n        address seller; //Stores address of Seller\n        address escrowParty; //Stores address of middleman -> Creator of contract\n        uint amount; //Stores amount of the item to be sold\n        bool buyerHappy; //Determines if buyer is happy\n        bool sellerRequest; //Determines if seller is happy\n        bool escrowResolved; //Middlemen steps in to resolve if both parties conflict.\n    }\n    constructor () public {\n        owner = msg.sender;\n    }\n    modifier onlyBuyer(bytes32 exchangeHash) {\n        require (allEscrows[exchangeHash].buyer == msg.sender);\n        _;\n    }\n    modifier onlySeller(bytes32 exchangeHash) {\n        require (allEscrows[exchangeHash].seller == msg.sender);\n        _;\n    }\n    modifier onlyOwner(bytes32 exchangeHash) {\n        require (allEscrows[exchangeHash].escrowParty == owner);\n        _;\n    }\n\n    function depositBean() public payable{}\n\n    function checkBean() public view returns(uint){\n        return address(this).balance;\n    }\n\n    function createEscrow(address sellerAddress, uint amount) public payable returns (bool){\n        require(msg.value > 0);\n\n        //creates a unique hash comprising of the buyer, seller and the amt to store the escrow\n        bytes32 exchangeHash = keccak256(msg.sender, sellerAddress, amount);\n        require(!allEscrows[exchangeHash].exists);\n\n        //initializes the info to be stored on allEscrows\n        EscrowDetails memory newEscrow;\n\n        newEscrow.buyer = msg.sender;\n        newEscrow.seller = sellerAddress;\n        newEscrow.escrowParty = owner;\n        newEscrow.amount = amount;\n        newEscrow.buyerHappy = false;\n        newEscrow.sellerRequest = false;\n        newEscrow.escrowResolved = false;\n\n        allEscrows[exchangeHash] = newEscrow;\n        emit EscrowCreated(exchangeHash); //Alerts that the escrow has been created and the corresponding address of it.\n    }\n\n    function sellerRequest(bytes32 exchangeHash) public onlySeller(exchangeHash){\n        EscrowDetails storage escrowRef = allEscrows[exchangeHash];\n        escrowRef.sellerRequest = true;\n    }\n\n    function buyerSatisfied(bytes32 exchangeHash) public onlyBuyer(exchangeHash){\n        EscrowDetails storage escrowRef = allEscrows[exchangeHash];\n        require(escrowRef.sellerRequest == true);\n        escrowRef.buyerHappy = true;\n        completePayment(exchangeHash);\n    }\n\n    function ownerResolveFavorSeller(bytes32 exchangeHash) public onlyOwner(exchangeHash){\n        EscrowDetails storage escrowRef = allEscrows[exchangeHash];\n        escrowRef.escrowResolved = true;\n        completePayment(exchangeHash);\n    }\n\n    function ownerResolveFavorBuyer(bytes32 exchangeHash) public onlyOwner(exchangeHash){\n        EscrowDetails storage escrowRef = allEscrows[exchangeHash];\n        escrowRef.escrowResolved = true;\n        refundPayment(exchangeHash);\n    }\n\n    function completePayment(bytes32 exchangeHash) private {\n        EscrowDetails memory escrowRef = allEscrows[exchangeHash];\n        address seller = escrowRef.seller;\n        uint amt = escrowRef.amount * 1 ether;\n        seller.transfer(amt);\n        emit PaymentSuccess(amt);\n    }\n\n    function refundPayment(bytes32 exchangeHash) private {\n        EscrowDetails memory escrowRef = allEscrows[exchangeHash];\n        address buyer = escrowRef.buyer;\n        uint amt = escrowRef.amount * 1 ether;\n        buyer.transfer(amt);\n        emit PaymentSuccess(amt);\n    }\n}\n",
  "sourcePath": "/Users/admin/Desktop/UNIVERSITY FILES/orbital/beans-angular/contracts/Escrow.sol",
  "compiler": {
    "name": "solc",
    "version": "0.4.24+commit.e67f0147.Emscripten.clang"
  },
  "schemaVersion": "2.0.1",
  "updatedAt": "2018-07-27T07:01:41.590Z"
}